{
  "_format": "hh3-artifact-1",
  "contractName": "ShipmentTracker",
  "sourceName": "contracts/ShipmentTracker.sol",
  "abi": [
    {
      "anonymous": false,
      "inputs": [
        {
          "indexed": false,
          "internalType": "string",
          "name": "trackingId",
          "type": "string"
        },
        {
          "indexed": false,
          "internalType": "string",
          "name": "itemName",
          "type": "string"
        },
        {
          "indexed": true,
          "internalType": "address",
          "name": "company",
          "type": "address"
        },
        {
          "indexed": false,
          "internalType": "uint256",
          "name": "timestamp",
          "type": "uint256"
        }
      ],
      "name": "ShipmentCreated",
      "type": "event"
    },
    {
      "anonymous": false,
      "inputs": [
        {
          "indexed": false,
          "internalType": "string",
          "name": "trackingId",
          "type": "string"
        },
        {
          "indexed": true,
          "internalType": "address",
          "name": "flaggedBy",
          "type": "address"
        },
        {
          "indexed": false,
          "internalType": "string",
          "name": "reason",
          "type": "string"
        },
        {
          "indexed": false,
          "internalType": "uint256",
          "name": "timestamp",
          "type": "uint256"
        }
      ],
      "name": "ShipmentFlagged",
      "type": "event"
    },
    {
      "anonymous": false,
      "inputs": [
        {
          "indexed": false,
          "internalType": "string",
          "name": "trackingId",
          "type": "string"
        },
        {
          "indexed": false,
          "internalType": "enum ShipmentTracker.ShipmentStatus",
          "name": "newStatus",
          "type": "uint8"
        },
        {
          "indexed": true,
          "internalType": "address",
          "name": "updatedBy",
          "type": "address"
        },
        {
          "indexed": false,
          "internalType": "uint256",
          "name": "timestamp",
          "type": "uint256"
        }
      ],
      "name": "ShipmentStatusUpdated",
      "type": "event"
    },
    {
      "anonymous": false,
      "inputs": [
        {
          "indexed": false,
          "internalType": "string",
          "name": "trackingId",
          "type": "string"
        },
        {
          "indexed": true,
          "internalType": "address",
          "name": "verifiedBy",
          "type": "address"
        },
        {
          "indexed": false,
          "internalType": "uint256",
          "name": "timestamp",
          "type": "uint256"
        }
      ],
      "name": "ShipmentVerified",
      "type": "event"
    },
    {
      "inputs": [
        {
          "internalType": "uint256",
          "name": "",
          "type": "uint256"
        }
      ],
      "name": "allTrackingIds",
      "outputs": [
        {
          "internalType": "string",
          "name": "",
          "type": "string"
        }
      ],
      "stateMutability": "view",
      "type": "function"
    },
    {
      "inputs": [
        {
          "internalType": "string",
          "name": "_trackingId",
          "type": "string"
        },
        {
          "internalType": "string",
          "name": "_itemName",
          "type": "string"
        },
        {
          "internalType": "string",
          "name": "_itemDescription",
          "type": "string"
        },
        {
          "internalType": "uint256",
          "name": "_weight",
          "type": "uint256"
        },
        {
          "internalType": "string",
          "name": "_dimensions",
          "type": "string"
        },
        {
          "internalType": "string",
          "name": "_materials",
          "type": "string"
        },
        {
          "internalType": "address",
          "name": "_carrier",
          "type": "address"
        },
        {
          "internalType": "address",
          "name": "_customer",
          "type": "address"
        }
      ],
      "name": "createShipment",
      "outputs": [],
      "stateMutability": "nonpayable",
      "type": "function"
    },
    {
      "inputs": [
        {
          "internalType": "string",
          "name": "_trackingId",
          "type": "string"
        },
        {
          "internalType": "string",
          "name": "_reason",
          "type": "string"
        }
      ],
      "name": "flagShipment",
      "outputs": [],
      "stateMutability": "nonpayable",
      "type": "function"
    },
    {
      "inputs": [
        {
          "internalType": "string",
          "name": "_trackingId",
          "type": "string"
        }
      ],
      "name": "getShipment",
      "outputs": [
        {
          "components": [
            {
              "internalType": "string",
              "name": "trackingId",
              "type": "string"
            },
            {
              "internalType": "string",
              "name": "itemName",
              "type": "string"
            },
            {
              "internalType": "string",
              "name": "itemDescription",
              "type": "string"
            },
            {
              "components": [
                {
                  "internalType": "uint256",
                  "name": "weight",
                  "type": "uint256"
                },
                {
                  "internalType": "string",
                  "name": "dimensions",
                  "type": "string"
                },
                {
                  "internalType": "string",
                  "name": "materials",
                  "type": "string"
                }
              ],
              "internalType": "struct ShipmentTracker.PackagingSpec",
              "name": "packaging",
              "type": "tuple"
            },
            {
              "internalType": "address",
              "name": "packagingCompany",
              "type": "address"
            },
            {
              "internalType": "address",
              "name": "carrier",
              "type": "address"
            },
            {
              "internalType": "address",
              "name": "customer",
              "type": "address"
            },
            {
              "internalType": "enum ShipmentTracker.ShipmentStatus",
              "name": "status",
              "type": "uint8"
            },
            {
              "internalType": "bool",
              "name": "isAuthentic",
              "type": "bool"
            },
            {
              "internalType": "uint256",
              "name": "createdAt",
              "type": "uint256"
            },
            {
              "internalType": "uint256",
              "name": "lastUpdatedAt",
              "type": "uint256"
            }
          ],
          "internalType": "struct ShipmentTracker.Shipment",
          "name": "",
          "type": "tuple"
        }
      ],
      "stateMutability": "view",
      "type": "function"
    },
    {
      "inputs": [],
      "name": "getTotalShipments",
      "outputs": [
        {
          "internalType": "uint256",
          "name": "",
          "type": "uint256"
        }
      ],
      "stateMutability": "view",
      "type": "function"
    },
    {
      "inputs": [
        {
          "internalType": "uint256",
          "name": "_index",
          "type": "uint256"
        }
      ],
      "name": "getTrackingIdByIndex",
      "outputs": [
        {
          "internalType": "string",
          "name": "",
          "type": "string"
        }
      ],
      "stateMutability": "view",
      "type": "function"
    },
    {
      "inputs": [
        {
          "internalType": "string",
          "name": "",
          "type": "string"
        }
      ],
      "name": "shipments",
      "outputs": [
        {
          "internalType": "string",
          "name": "trackingId",
          "type": "string"
        },
        {
          "internalType": "string",
          "name": "itemName",
          "type": "string"
        },
        {
          "internalType": "string",
          "name": "itemDescription",
          "type": "string"
        },
        {
          "components": [
            {
              "internalType": "uint256",
              "name": "weight",
              "type": "uint256"
            },
            {
              "internalType": "string",
              "name": "dimensions",
              "type": "string"
            },
            {
              "internalType": "string",
              "name": "materials",
              "type": "string"
            }
          ],
          "internalType": "struct ShipmentTracker.PackagingSpec",
          "name": "packaging",
          "type": "tuple"
        },
        {
          "internalType": "address",
          "name": "packagingCompany",
          "type": "address"
        },
        {
          "internalType": "address",
          "name": "carrier",
          "type": "address"
        },
        {
          "internalType": "address",
          "name": "customer",
          "type": "address"
        },
        {
          "internalType": "enum ShipmentTracker.ShipmentStatus",
          "name": "status",
          "type": "uint8"
        },
        {
          "internalType": "bool",
          "name": "isAuthentic",
          "type": "bool"
        },
        {
          "internalType": "uint256",
          "name": "createdAt",
          "type": "uint256"
        },
        {
          "internalType": "uint256",
          "name": "lastUpdatedAt",
          "type": "uint256"
        }
      ],
      "stateMutability": "view",
      "type": "function"
    },
    {
      "inputs": [
        {
          "internalType": "string",
          "name": "_trackingId",
          "type": "string"
        },
        {
          "internalType": "enum ShipmentTracker.ShipmentStatus",
          "name": "_newStatus",
          "type": "uint8"
        }
      ],
      "name": "updateShipmentStatus",
      "outputs": [],
      "stateMutability": "nonpayable",
      "type": "function"
    },
    {
      "inputs": [
        {
          "internalType": "string",
          "name": "_trackingId",
          "type": "string"
        }
      ],
      "name": "verifyShipment",
      "outputs": [],
      "stateMutability": "nonpayable",
      "type": "function"
    }
  ],
  "bytecode": "0x6080604052348015600e575f5ffd5b5061239a8061001c5f395ff3fe608060405234801561000f575f5ffd5b5060043610610091575f3560e01c8063885301b211610064578063885301b214610137578063a670c56c14610155578063cf09efd114610171578063da34f3d5146101a1578063e7d5c46a146101d157610091565b80631a5c3d0e1461009557806325171800146100c55780635ceaef5b146100e157806384db08551461011b575b5f5ffd5b6100af60048036038101906100aa91906114b2565b6101ed565b6040516100bc919061154d565b60405180910390f35b6100df60048036038101906100da9190611699565b610293565b005b6100fb60048036038101906100f69190611699565b6103c7565b6040516101129b9a99989796959493929190611866565b60405180910390f35b61013560048036038101906101309190611955565b610770565b005b61013f610b07565b60405161014c9190611a92565b60405180910390f35b61016f600480360381019061016a9190611aab565b610b13565b005b61018b600480360381019061018691906114b2565b610c1e565b604051610198919061154d565b60405180910390f35b6101bb60048036038101906101b69190611699565b610d11565b6040516101c89190611ca3565b60405180910390f35b6101eb60048036038101906101e69190611ce6565b61120d565b005b600181815481106101fc575f80fd5b905f5260205f20015f91509050805461021490611d6d565b80601f016020809104026020016040519081016040528092919081815260200182805461024090611d6d565b801561028b5780601f106102625761010080835404028352916020019161028b565b820191905f5260205f20905b81548152906001019060200180831161026e57829003601f168201915b505050505081565b805f5f826040516102a49190611dd7565b90815260200160405180910390205f0180546102bf90611d6d565b905003610301576040517f08c379a00000000000000000000000000000000000000000000000000000000081526004016102f890611e37565b60405180910390fd5b5f5f836040516103119190611dd7565b908152602001604051809103902090508060080160159054906101000a900460ff16610372576040517f08c379a000000000000000000000000000000000000000000000000000000000815260040161036990611ec5565b60405180910390fd5b3373ffffffffffffffffffffffffffffffffffffffff167f5c6ed46fe2914c15fb847a3885fd57a70327376635a280fb86e8b9e483eef17784426040516103ba929190611ee3565b60405180910390a2505050565b5f818051602081018201805184825260208301602085012081835280955050505050505f91509050805f0180546103fd90611d6d565b80601f016020809104026020016040519081016040528092919081815260200182805461042990611d6d565b80156104745780601f1061044b57610100808354040283529160200191610474565b820191905f5260205f20905b81548152906001019060200180831161045757829003601f168201915b50505050509080600101805461048990611d6d565b80601f01602080910402602001604051908101604052809291908181526020018280546104b590611d6d565b80156105005780601f106104d757610100808354040283529160200191610500565b820191905f5260205f20905b8154815290600101906020018083116104e357829003601f168201915b50505050509080600201805461051590611d6d565b80601f016020809104026020016040519081016040528092919081815260200182805461054190611d6d565b801561058c5780601f106105635761010080835404028352916020019161058c565b820191905f5260205f20905b81548152906001019060200180831161056f57829003601f168201915b505050505090806003016040518060600160405290815f82015481526020016001820180546105ba90611d6d565b80601f01602080910402602001604051908101604052809291908181526020018280546105e690611d6d565b80156106315780601f1061060857610100808354040283529160200191610631565b820191905f5260205f20905b81548152906001019060200180831161061457829003601f168201915b5050505050815260200160028201805461064a90611d6d565b80601f016020809104026020016040519081016040528092919081815260200182805461067690611d6d565b80156106c15780601f10610698576101008083540402835291602001916106c1565b820191905f5260205f20905b8154815290600101906020018083116106a457829003601f168201915b50505050508152505090806006015f9054906101000a900473ffffffffffffffffffffffffffffffffffffffff1690806007015f9054906101000a900473ffffffffffffffffffffffffffffffffffffffff1690806008015f9054906101000a900473ffffffffffffffffffffffffffffffffffffffff16908060080160149054906101000a900460ff16908060080160159054906101000a900460ff169080600901549080600a015490508b565b875f5f826040516107819190611dd7565b90815260200160405180910390205f01805461079c90611d6d565b9050146107de576040517f08c379a00000000000000000000000000000000000000000000000000000000081526004016107d590611f5b565b60405180910390fd5b5f60405180606001604052808881526020018781526020018681525090506040518061016001604052808b81526020018a81526020018981526020018281526020013373ffffffffffffffffffffffffffffffffffffffff1681526020018573ffffffffffffffffffffffffffffffffffffffff1681526020018473ffffffffffffffffffffffffffffffffffffffff1681526020015f6004811115610887576108866117ca565b5b8152602001600115158152602001428152602001428152505f8b6040516108ae9190611dd7565b90815260200160405180910390205f820151815f0190816108cf9190612119565b5060208201518160010190816108e59190612119565b5060408201518160020190816108fb9190612119565b506060820151816003015f820151815f015560208201518160010190816109229190612119565b5060408201518160020190816109389190612119565b5050506080820151816006015f6101000a81548173ffffffffffffffffffffffffffffffffffffffff021916908373ffffffffffffffffffffffffffffffffffffffff16021790555060a0820151816007015f6101000a81548173ffffffffffffffffffffffffffffffffffffffff021916908373ffffffffffffffffffffffffffffffffffffffff16021790555060c0820151816008015f6101000a81548173ffffffffffffffffffffffffffffffffffffffff021916908373ffffffffffffffffffffffffffffffffffffffff16021790555060e08201518160080160146101000a81548160ff02191690836004811115610a3857610a376117ca565b5b02179055506101008201518160080160156101000a81548160ff021916908315150217905550610120820151816009015561014082015181600a015590505060018a908060018154018082558091505060019003905f5260205f20015f909190919091509081610aa89190612119565b503373ffffffffffffffffffffffffffffffffffffffff167ffbc9830d6079d4f7deec16024466d3db37b4f99b55af22e1efde9e3ff8ce94b18b8b42604051610af3939291906121e8565b60405180910390a250505050505050505050565b5f600180549050905090565b815f5f82604051610b249190611dd7565b90815260200160405180910390205f018054610b3f90611d6d565b905003610b81576040517f08c379a0000000000000000000000000000000000000000000000000000000008152600401610b7890611e37565b60405180910390fd5b5f5f84604051610b919190611dd7565b908152602001604051809103902090505f8160080160156101000a81548160ff0219169083151502179055504281600a01819055503373ffffffffffffffffffffffffffffffffffffffff167f5be33f9c63b0d6130310550884be1889eb392202ce608445a4391f735be04083858542604051610c10939291906121e8565b60405180910390a250505050565b60606001805490508210610c67576040517f08c379a0000000000000000000000000000000000000000000000000000000008152600401610c5e90612275565b60405180910390fd5b60018281548110610c7b57610c7a612293565b5b905f5260205f20018054610c8e90611d6d565b80601f0160208091040260200160405190810160405280929190818152602001828054610cba90611d6d565b8015610d055780601f10610cdc57610100808354040283529160200191610d05565b820191905f5260205f20905b815481529060010190602001808311610ce857829003601f168201915b50505050509050919050565b610d1961139f565b815f5f82604051610d2a9190611dd7565b90815260200160405180910390205f018054610d4590611d6d565b905003610d87576040517f08c379a0000000000000000000000000000000000000000000000000000000008152600401610d7e90611e37565b60405180910390fd5b5f83604051610d969190611dd7565b9081526020016040518091039020604051806101600160405290815f82018054610dbf90611d6d565b80601f0160208091040260200160405190810160405280929190818152602001828054610deb90611d6d565b8015610e365780601f10610e0d57610100808354040283529160200191610e36565b820191905f5260205f20905b815481529060010190602001808311610e1957829003601f168201915b50505050508152602001600182018054610e4f90611d6d565b80601f0160208091040260200160405190810160405280929190818152602001828054610e7b90611d6d565b8015610ec65780601f10610e9d57610100808354040283529160200191610ec6565b820191905f5260205f20905b815481529060010190602001808311610ea957829003601f168201915b50505050508152602001600282018054610edf90611d6d565b80601f0160208091040260200160405190810160405280929190818152602001828054610f0b90611d6d565b8015610f565780601f10610f2d57610100808354040283529160200191610f56565b820191905f5260205f20905b815481529060010190602001808311610f3957829003601f168201915b50505050508152602001600382016040518060600160405290815f8201548152602001600182018054610f8890611d6d565b80601f0160208091040260200160405190810160405280929190818152602001828054610fb490611d6d565b8015610fff5780601f10610fd657610100808354040283529160200191610fff565b820191905f5260205f20905b815481529060010190602001808311610fe257829003601f168201915b5050505050815260200160028201805461101890611d6d565b80601f016020809104026020016040519081016040528092919081815260200182805461104490611d6d565b801561108f5780601f106110665761010080835404028352916020019161108f565b820191905f5260205f20905b81548152906001019060200180831161107257829003601f168201915b5050505050815250508152602001600682015f9054906101000a900473ffffffffffffffffffffffffffffffffffffffff1673ffffffffffffffffffffffffffffffffffffffff1673ffffffffffffffffffffffffffffffffffffffff168152602001600782015f9054906101000a900473ffffffffffffffffffffffffffffffffffffffff1673ffffffffffffffffffffffffffffffffffffffff1673ffffffffffffffffffffffffffffffffffffffff168152602001600882015f9054906101000a900473ffffffffffffffffffffffffffffffffffffffff1673ffffffffffffffffffffffffffffffffffffffff1673ffffffffffffffffffffffffffffffffffffffff1681526020016008820160149054906101000a900460ff1660048111156111c0576111bf6117ca565b5b60048111156111d2576111d16117ca565b5b81526020016008820160159054906101000a900460ff1615151515815260200160098201548152602001600a82015481525050915050919050565b815f5f8260405161121e9190611dd7565b90815260200160405180910390205f01805461123990611d6d565b90500361127b576040517f08c379a000000000000000000000000000000000000000000000000000000000815260040161127290611e37565b60405180910390fd5b5f5f8460405161128b9190611dd7565b908152602001604051809103902090508060080160149054906101000a900460ff1660048111156112bf576112be6117ca565b5b8360048111156112d2576112d16117ca565b5b11611312576040517f08c379a00000000000000000000000000000000000000000000000000000000081526004016113099061230a565b60405180910390fd5b828160080160146101000a81548160ff02191690836004811115611339576113386117ca565b5b02179055504281600a01819055503373ffffffffffffffffffffffffffffffffffffffff167fb7cf63fd6fd7aeb9a9a0d643500441b0c1d3beffb8293ccf83d3424a102de5f085854260405161139193929190612328565b60405180910390a250505050565b6040518061016001604052806060815260200160608152602001606081526020016113c861144e565b81526020015f73ffffffffffffffffffffffffffffffffffffffff1681526020015f73ffffffffffffffffffffffffffffffffffffffff1681526020015f73ffffffffffffffffffffffffffffffffffffffff1681526020015f6004811115611434576114336117ca565b5b81526020015f151581526020015f81526020015f81525090565b60405180606001604052805f815260200160608152602001606081525090565b5f604051905090565b5f5ffd5b5f5ffd5b5f819050919050565b6114918161147f565b811461149b575f5ffd5b50565b5f813590506114ac81611488565b92915050565b5f602082840312156114c7576114c6611477565b5b5f6114d48482850161149e565b91505092915050565b5f81519050919050565b5f82825260208201905092915050565b8281835e5f83830152505050565b5f601f19601f8301169050919050565b5f61151f826114dd565b61152981856114e7565b93506115398185602086016114f7565b61154281611505565b840191505092915050565b5f6020820190508181035f8301526115658184611515565b905092915050565b5f5ffd5b5f5ffd5b7f4e487b71000000000000000000000000000000000000000000000000000000005f52604160045260245ffd5b6115ab82611505565b810181811067ffffffffffffffff821117156115ca576115c9611575565b5b80604052505050565b5f6115dc61146e565b90506115e882826115a2565b919050565b5f67ffffffffffffffff82111561160757611606611575565b5b61161082611505565b9050602081019050919050565b828183375f83830152505050565b5f61163d611638846115ed565b6115d3565b90508281526020810184848401111561165957611658611571565b5b61166484828561161d565b509392505050565b5f82601f8301126116805761167f61156d565b5b813561169084826020860161162b565b91505092915050565b5f602082840312156116ae576116ad611477565b5b5f82013567ffffffffffffffff8111156116cb576116ca61147b565b5b6116d78482850161166c565b91505092915050565b6116e98161147f565b82525050565b5f82825260208201905092915050565b5f611709826114dd565b61171381856116ef565b93506117238185602086016114f7565b61172c81611505565b840191505092915050565b5f606083015f83015161174c5f8601826116e0565b506020830151848203602086015261176482826116ff565b9150506040830151848203604086015261177e82826116ff565b9150508091505092915050565b5f73ffffffffffffffffffffffffffffffffffffffff82169050919050565b5f6117b48261178b565b9050919050565b6117c4816117aa565b82525050565b7f4e487b71000000000000000000000000000000000000000000000000000000005f52602160045260245ffd5b60058110611808576118076117ca565b5b50565b5f819050611818826117f7565b919050565b5f6118278261180b565b9050919050565b6118378161181d565b82525050565b5f8115159050919050565b6118518161183d565b82525050565b6118608161147f565b82525050565b5f610160820190508181035f83015261187f818e611515565b90508181036020830152611893818d611515565b905081810360408301526118a7818c611515565b905081810360608301526118bb818b611737565b90506118ca608083018a6117bb565b6118d760a08301896117bb565b6118e460c08301886117bb565b6118f160e083018761182e565b6118ff610100830186611848565b61190d610120830185611857565b61191b610140830184611857565b9c9b505050505050505050505050565b611934816117aa565b811461193e575f5ffd5b50565b5f8135905061194f8161192b565b92915050565b5f5f5f5f5f5f5f5f610100898b03121561197257611971611477565b5b5f89013567ffffffffffffffff81111561198f5761198e61147b565b5b61199b8b828c0161166c565b985050602089013567ffffffffffffffff8111156119bc576119bb61147b565b5b6119c88b828c0161166c565b975050604089013567ffffffffffffffff8111156119e9576119e861147b565b5b6119f58b828c0161166c565b9650506060611a068b828c0161149e565b955050608089013567ffffffffffffffff811115611a2757611a2661147b565b5b611a338b828c0161166c565b94505060a089013567ffffffffffffffff811115611a5457611a5361147b565b5b611a608b828c0161166c565b93505060c0611a718b828c01611941565b92505060e0611a828b828c01611941565b9150509295985092959890939650565b5f602082019050611aa55f830184611857565b92915050565b5f5f60408385031215611ac157611ac0611477565b5b5f83013567ffffffffffffffff811115611ade57611add61147b565b5b611aea8582860161166c565b925050602083013567ffffffffffffffff811115611b0b57611b0a61147b565b5b611b178582860161166c565b9150509250929050565b5f606083015f830151611b365f8601826116e0565b5060208301518482036020860152611b4e82826116ff565b91505060408301518482036040860152611b6882826116ff565b9150508091505092915050565b611b7e816117aa565b82525050565b611b8d8161181d565b82525050565b611b9c8161183d565b82525050565b5f61016083015f8301518482035f860152611bbd82826116ff565b91505060208301518482036020860152611bd782826116ff565b91505060408301518482036040860152611bf182826116ff565b91505060608301518482036060860152611c0b8282611b21565b9150506080830151611c206080860182611b75565b5060a0830151611c3360a0860182611b75565b5060c0830151611c4660c0860182611b75565b5060e0830151611c5960e0860182611b84565b50610100830151611c6e610100860182611b93565b50610120830151611c836101208601826116e0565b50610140830151611c986101408601826116e0565b508091505092915050565b5f6020820190508181035f830152611cbb8184611ba2565b905092915050565b60058110611ccf575f5ffd5b50565b5f81359050611ce081611cc3565b92915050565b5f5f60408385031215611cfc57611cfb611477565b5b5f83013567ffffffffffffffff811115611d1957611d1861147b565b5b611d258582860161166c565b9250506020611d3685828601611cd2565b9150509250929050565b7f4e487b71000000000000000000000000000000000000000000000000000000005f52602260045260245ffd5b5f6002820490506001821680611d8457607f821691505b602082108103611d9757611d96611d40565b5b50919050565b5f81905092915050565b5f611db1826114dd565b611dbb8185611d9d565b9350611dcb8185602086016114f7565b80840191505092915050565b5f611de28284611da7565b915081905092915050565b7f536869706d656e7420646f6573206e6f742065786973740000000000000000005f82015250565b5f611e216017836114e7565b9150611e2c82611ded565b602082019050919050565b5f6020820190508181035f830152611e4e81611e15565b9050919050565b7f536869706d656e7420616c726561647920666c616767656420617320696e61755f8201527f7468656e74696300000000000000000000000000000000000000000000000000602082015250565b5f611eaf6027836114e7565b9150611eba82611e55565b604082019050919050565b5f6020820190508181035f830152611edc81611ea3565b9050919050565b5f6040820190508181035f830152611efb8185611515565b9050611f0a6020830184611857565b9392505050565b7f536869706d656e7420616c7265616479206578697374730000000000000000005f82015250565b5f611f456017836114e7565b9150611f5082611f11565b602082019050919050565b5f6020820190508181035f830152611f7281611f39565b9050919050565b5f819050815f5260205f209050919050565b5f6020601f8301049050919050565b5f82821b905092915050565b5f60088302611fd57fffffffffffffffffffffffffffffffffffffffffffffffffffffffffffffffff82611f9a565b611fdf8683611f9a565b95508019841693508086168417925050509392505050565b5f819050919050565b5f61201a6120156120108461147f565b611ff7565b61147f565b9050919050565b5f819050919050565b61203383612000565b61204761203f82612021565b848454611fa6565b825550505050565b5f5f905090565b61205e61204f565b61206981848461202a565b505050565b5b8181101561208c576120815f82612056565b60018101905061206f565b5050565b601f8211156120d1576120a281611f79565b6120ab84611f8b565b810160208510156120ba578190505b6120ce6120c685611f8b565b83018261206e565b50505b505050565b5f82821c905092915050565b5f6120f15f19846008026120d6565b1980831691505092915050565b5f61210983836120e2565b9150826002028217905092915050565b612122826114dd565b67ffffffffffffffff81111561213b5761213a611575565b5b6121458254611d6d565b612150828285612090565b5f60209050601f831160018114612181575f841561216f578287015190505b61217985826120fe565b8655506121e0565b601f19841661218f86611f79565b5f5b828110156121b657848901518255600182019150602085019450602081019050612191565b868310156121d357848901516121cf601f8916826120e2565b8355505b6001600288020188555050505b505050505050565b5f6060820190508181035f8301526122008186611515565b905081810360208301526122148185611515565b90506122236040830184611857565b949350505050565b7f496e646578206f7574206f6620626f756e6473000000000000000000000000005f82015250565b5f61225f6013836114e7565b915061226a8261222b565b602082019050919050565b5f6020820190508181035f83015261228c81612253565b9050919050565b7f4e487b71000000000000000000000000000000000000000000000000000000005f52603260045260245ffd5b7f43616e6e6f742072657665727420746f206561726c69657220737461747573005f82015250565b5f6122f4601f836114e7565b91506122ff826122c0565b602082019050919050565b5f6020820190508181035f830152612321816122e8565b9050919050565b5f6060820190508181035f8301526123408186611515565b905061234f602083018561182e565b61235c6040830184611857565b94935050505056fea2646970667358221220ee0feda7ec330e8306cdd090465240da69b275c831f317c37e8da8f43170669964736f6c634300081c0033",
  "linkReferences": {},
  "deployedLinkReferences": {},
  "immutableReferences": {},
  "inputSourceName": "project/contracts/ShipmentTracker.sol",
  "buildInfoId": "solc-0_8_28-afb4c7ad952e4037cbbe3f023af8e11f4346bb0f"
}